:100000000C9478000C943C010C943C010C943C0141
:100010000C943C010C943C010C943C010C943C016C
:100020000C943C010C943C010C943C010C943C015C
:100030000C943C010C943C010C943C010C943C014C
:100040000C943C010C943C010C943C010C943C013C
:100050000C943C010C943C010C943C010C943C012C
:100060000C943C010C943C010C943C010C943C011C
:100070000C943C010C943C010C943C010C943C010C
:100080000C943C010C943C010C943C010C943C01FC
:100090000C943C010C943C010C943C010C943C01EC
:1000A0000C943C010C943C010C943C010C943C01DC
:1000B0000C943C010C943C010C943C010C943C01CC
:1000C0000C943C010C943C010C943C010C943C01BC
:1000D0000C943C010C943C010C943C010C943C01AC
:1000E0000C943C010C943C0140004002000286004C
:1000F00011241FBECFEFCDBFDFE7DEBFE8EEF0E09B
:1001000040E019C0B791A79137912791079107FD5A
:100110000EC097918791EF01F92FE82F0BBF079041
:100120000D92A217B307D9F7FE011BBE04C01D92A2
:10013000A217B307E1F7EF3EF40721F70E94A400EE
:080140000C943101F894FFCF8B
:1001480088ED84BF81E180936100469A4E98E0E48F
:10015800F4E087898860878B80E090E040E050E099
:1001680030E070E461E0EBEA57990AC03323E9F123
:10017800483E2DEF520708F041C04F5F5F4F3EC029
:100188003323E1F14D32A1E05A07E8F080910140B4
:100198008E9F912D11249695292F220F920F891B3E
:1001A8008F5F8093014080910140823041F083301D
:1001B80041F08130F1F44E986093004049C04E9A66
:1001C80047C04E9845C0209101402130B1F420919C
:1001D8000040222329F04E9A1092004030E00EC0D1
:1001E8004E986093004030E009C040E050E0362F60
:1001F80005C080E090E030E001C030E0209101408F
:10020800223031F0233069F01BC080E090E030E00C
:100218008A309105A8F089B1872789B980E090E0F4
:100228000FC08A30910511F44E9A0AC084369105A0
:1002380038F04E9880E090E003C030E080E090E035
:100248000196A3ECB9E01197F1F700C000008CCF3C
:0A02580080910140823089F7D8CF71
:10026200EC010E9441010E944001CE010E94420124
:06027200CE010E943E01D6
:040278000C940000E2
:04027C000E94A2003A
:020280000895DF
:020282000895DD
:020284000895DB
:010286000176
:010287000175
:00000001FF
